{
  "_format": "hh-sol-artifact-1",
  "contractName": "EnergyTrading",
  "sourceName": "contracts/contract.sol",
  "abi": [
    {
      "inputs": [
        {
          "internalType": "address",
          "name": "_recorder",
          "type": "address"
        }
      ],
      "stateMutability": "payable",
      "type": "constructor"
    },
    {
      "anonymous": false,
      "inputs": [
        {
          "indexed": false,
          "internalType": "uint256",
          "name": "totalMatchedEnergy",
          "type": "uint256"
        }
      ],
      "name": "CoordinationComplete",
      "type": "event"
    },
    {
      "inputs": [
        {
          "internalType": "address",
          "name": "_seller",
          "type": "address"
        },
        {
          "internalType": "uint256",
          "name": "_requestedEnergy",
          "type": "uint256"
        }
      ],
      "name": "buyEnergyFrom",
      "outputs": [],
      "stateMutability": "nonpayable",
      "type": "function"
    },
    {
      "inputs": [],
      "name": "coordinateTrading",
      "outputs": [],
      "stateMutability": "nonpayable",
      "type": "function"
    },
    {
      "inputs": [],
      "name": "deposit",
      "outputs": [],
      "stateMutability": "payable",
      "type": "function"
    },
    {
      "inputs": [],
      "name": "getEnergyPrice",
      "outputs": [
        {
          "internalType": "uint256",
          "name": "",
          "type": "uint256"
        }
      ],
      "stateMutability": "view",
      "type": "function"
    },
    {
      "inputs": [],
      "name": "getRecorder",
      "outputs": [
        {
          "internalType": "address",
          "name": "",
          "type": "address"
        }
      ],
      "stateMutability": "view",
      "type": "function"
    },
    {
      "inputs": [
        {
          "internalType": "address",
          "name": "",
          "type": "address"
        }
      ],
      "name": "prosumers",
      "outputs": [
        {
          "internalType": "address",
          "name": "prosumerAddress",
          "type": "address"
        },
        {
          "internalType": "int256",
          "name": "prosumerEnergyStat",
          "type": "int256"
        },
        {
          "internalType": "uint256",
          "name": "prosumerBalance",
          "type": "uint256"
        },
        {
          "internalType": "bool",
          "name": "isMember",
          "type": "bool"
        }
      ],
      "stateMutability": "view",
      "type": "function"
    },
    {
      "inputs": [],
      "name": "registerProsumer",
      "outputs": [],
      "stateMutability": "nonpayable",
      "type": "function"
    },
    {
      "inputs": [
        {
          "internalType": "address",
          "name": "_buyer",
          "type": "address"
        },
        {
          "internalType": "uint256",
          "name": "_offeredEnergy",
          "type": "uint256"
        }
      ],
      "name": "sellEnergyTo",
      "outputs": [],
      "stateMutability": "nonpayable",
      "type": "function"
    },
    {
      "inputs": [],
      "name": "updateEnergyPrice",
      "outputs": [],
      "stateMutability": "nonpayable",
      "type": "function"
    },
    {
      "inputs": [
        {
          "internalType": "address",
          "name": "_prosumer",
          "type": "address"
        },
        {
          "internalType": "int256",
          "name": "deltaEnergy",
          "type": "int256"
        }
      ],
      "name": "updateEnergyStatus",
      "outputs": [],
      "stateMutability": "nonpayable",
      "type": "function"
    },
    {
      "inputs": [
        {
          "internalType": "uint256",
          "name": "_value",
          "type": "uint256"
        }
      ],
      "name": "withdraw",
      "outputs": [],
      "stateMutability": "nonpayable",
      "type": "function"
    }
  ],
  "bytecode": "0x6080604052604051620037eb380380620037eb83398181016040528101906200002991906200015c565b600073ffffffffffffffffffffffffffffffffffffffff168173ffffffffffffffffffffffffffffffffffffffff16036200009b576040517f08c379a00000000000000000000000000000000000000000000000000000000081526004016200009290620001ef565b60405180910390fd5b80600260006101000a81548173ffffffffffffffffffffffffffffffffffffffff021916908373ffffffffffffffffffffffffffffffffffffffff160217905550670de0b6b3a76400006001819055505062000211565b600080fd5b600073ffffffffffffffffffffffffffffffffffffffff82169050919050565b60006200012482620000f7565b9050919050565b620001368162000117565b81146200014257600080fd5b50565b60008151905062000156816200012b565b92915050565b600060208284031215620001755762000174620000f2565b5b6000620001858482850162000145565b91505092915050565b600082825260208201905092915050565b7f5265636f7264657220616464726573732063616e6e6f74206265207a65726f00600082015250565b6000620001d7601f836200018e565b9150620001e4826200019f565b602082019050919050565b600060208201905081810360008301526200020a81620001c8565b9050919050565b6135ca80620002216000396000f3fe60806040526004361061009c5760003560e01c80637a6edb28116100645780637a6edb2814610161578063a38188801461018a578063b6c3afca146101a1578063cab0f335146101cc578063cb2fd8db146101f7578063d0e30db0146102205761009c565b80630f0fe598146100a15780632c8d7c32146100ca5780632e1a7d4d1461010a5780632fbbf1231461013357806345f802511461014a575b600080fd5b3480156100ad57600080fd5b506100c860048036038101906100c391906123c1565b61022a565b005b3480156100d657600080fd5b506100f160048036038101906100ec9190612401565b61081f565b6040516101019493929190612480565b60405180910390f35b34801561011657600080fd5b50610131600480360381019061012c91906124c5565b61087c565b005b34801561013f57600080fd5b50610148610b5e565b005b34801561015657600080fd5b5061015f610cf6565b005b34801561016d57600080fd5b50610188600480360381019061018391906123c1565b611490565b005b34801561019657600080fd5b5061019f611a85565b005b3480156101ad57600080fd5b506101b6611c71565b6040516101c391906124f2565b60405180910390f35b3480156101d857600080fd5b506101e1611c9b565b6040516101ee919061250d565b60405180910390f35b34801561020357600080fd5b5061021e60048036038101906102199190612554565b611ca5565b005b610228611e27565b005b6000803373ffffffffffffffffffffffffffffffffffffffff1673ffffffffffffffffffffffffffffffffffffffff16815260200190815260200160002060030160009054906101000a900460ff166102b8576040517f08c379a00000000000000000000000000000000000000000000000000000000081526004016102af90612617565b60405180910390fd5b6000808373ffffffffffffffffffffffffffffffffffffffff1673ffffffffffffffffffffffffffffffffffffffff16815260200190815260200160002060030160009054906101000a900460ff16610346576040517f08c379a000000000000000000000000000000000000000000000000000000000815260040161033d906126a9565b60405180910390fd5b8173ffffffffffffffffffffffffffffffffffffffff163373ffffffffffffffffffffffffffffffffffffffff16036103b4576040517f08c379a00000000000000000000000000000000000000000000000000000000081526004016103ab9061273b565b60405180910390fd5b600081116103f7576040517f08c379a00000000000000000000000000000000000000000000000000000000081526004016103ee906127cd565b60405180910390fd5b60008060003373ffffffffffffffffffffffffffffffffffffffff1673ffffffffffffffffffffffffffffffffffffffff168152602001908152602001600020600101541261047b576040517f08c379a00000000000000000000000000000000000000000000000000000000081526004016104729061285f565b60405180910390fd5b60008060008473ffffffffffffffffffffffffffffffffffffffff1673ffffffffffffffffffffffffffffffffffffffff16815260200190815260200160002060010154136104ff576040517f08c379a00000000000000000000000000000000000000000000000000000000081526004016104f6906128f1565b60405180910390fd5b60008060003373ffffffffffffffffffffffffffffffffffffffff1673ffffffffffffffffffffffffffffffffffffffff1681526020019081526020016000206001015461054c90612940565b905060008060008573ffffffffffffffffffffffffffffffffffffffff1673ffffffffffffffffffffffffffffffffffffffff168152602001908152602001600020600101549050818311156105d7576040517f08c379a00000000000000000000000000000000000000000000000000000000081526004016105ce906129fa565b60405180910390fd5b8083111561061a576040517f08c379a000000000000000000000000000000000000000000000000000000000815260040161061190612a8c565b60405180910390fd5b60006001548461062a9190612aac565b9050806000803373ffffffffffffffffffffffffffffffffffffffff1673ffffffffffffffffffffffffffffffffffffffff1681526020019081526020016000206002015410156106b0576040517f08c379a00000000000000000000000000000000000000000000000000000000081526004016106a790612b60565b60405180910390fd5b806000803373ffffffffffffffffffffffffffffffffffffffff1673ffffffffffffffffffffffffffffffffffffffff16815260200190815260200160002060020160008282546107019190612b80565b92505081905550806000808773ffffffffffffffffffffffffffffffffffffffff1673ffffffffffffffffffffffffffffffffffffffff16815260200190815260200160002060020160008282546107599190612bb4565b92505081905550836000803373ffffffffffffffffffffffffffffffffffffffff1673ffffffffffffffffffffffffffffffffffffffff16815260200190815260200160002060010160008282546107b19190612be8565b92505081905550836000808773ffffffffffffffffffffffffffffffffffffffff1673ffffffffffffffffffffffffffffffffffffffff16815260200190815260200160002060010160008282546108099190612c2c565b92505081905550610818610b5e565b5050505050565b60006020528060005260406000206000915090508060000160009054906101000a900473ffffffffffffffffffffffffffffffffffffffff16908060010154908060020154908060030160009054906101000a900460ff16905084565b6000803373ffffffffffffffffffffffffffffffffffffffff1673ffffffffffffffffffffffffffffffffffffffff16815260200190815260200160002060030160009054906101000a900460ff1661090a576040517f08c379a000000000000000000000000000000000000000000000000000000000815260040161090190612ce1565b60405180910390fd5b60008060003373ffffffffffffffffffffffffffffffffffffffff1673ffffffffffffffffffffffffffffffffffffffff16815260200190815260200160002060010154121561098f576040517f08c379a000000000000000000000000000000000000000000000000000000000815260040161098690612d73565b60405180910390fd5b806000803373ffffffffffffffffffffffffffffffffffffffff1673ffffffffffffffffffffffffffffffffffffffff168152602001908152602001600020600201541015610a13576040517f08c379a0000000000000000000000000000000000000000000000000000000008152600401610a0a90612ddf565b60405180910390fd5b60008111610a56576040517f08c379a0000000000000000000000000000000000000000000000000000000008152600401610a4d90612e71565b60405180910390fd5b806000803373ffffffffffffffffffffffffffffffffffffffff1673ffffffffffffffffffffffffffffffffffffffff1681526020019081526020016000206002016000828254610aa79190612b80565b9250508190555060003373ffffffffffffffffffffffffffffffffffffffff1682604051610ad490612ec2565b60006040518083038185875af1925050503d8060008114610b11576040519150601f19603f3d011682016040523d82523d6000602084013e610b16565b606091505b5050905080610b5a576040517f08c379a0000000000000000000000000000000000000000000000000000000008152600401610b5190612f23565b60405180910390fd5b5050565b6000805b600380549050811015610c0f5760008060038381548110610b8657610b85612f43565b5b9060005260206000200160009054906101000a900473ffffffffffffffffffffffffffffffffffffffff1673ffffffffffffffffffffffffffffffffffffffff1673ffffffffffffffffffffffffffffffffffffffff1681526020019081526020016000206001015482610bfa9190612be8565b91508080610c0790612f72565b915050610b62565b506000670de0b6b3a76400009050600066038d7ea4c6800090506000674563918244f400009050600067016345785d8a0000905060008503610c575783600181905550610cef565b6000851215610ca557600085610c6c90612940565b905060008482610c7c9190612aac565b86610c879190612bb4565b9050838111610c965780610c98565b835b6001819055505050610cee565b600085905060008482610cb89190612aac565b90508286610cc69190612b80565b8110610cd85782600181905550610ceb565b8086610ce49190612b80565b6001819055505b50505b5b5050505050565b60008060005b600380549050811015610dd657600080600060038481548110610d2257610d21612f43565b5b9060005260206000200160009054906101000a900473ffffffffffffffffffffffffffffffffffffffff1673ffffffffffffffffffffffffffffffffffffffff1673ffffffffffffffffffffffffffffffffffffffff1681526020019081526020016000206001015490506000811315610da9578380610da190612f72565b945050610dc2565b6000811215610dc1578280610dbd90612f72565b9350505b5b508080610dce90612f72565b915050610cfc565b506000821480610de65750600081145b15610e2a577f39b4ddfd83bc9792a2233171d2d72f2231f35220251dee4342d6f07c3cea0e6f6000604051610e1b9190612fff565b60405180910390a1505061148e565b60008267ffffffffffffffff811115610e4657610e4561301a565b5b604051908082528060200260200182016040528015610e745781602001602082028036833780820191505090505b50905060008267ffffffffffffffff811115610e9357610e9261301a565b5b604051908082528060200260200182016040528015610ec15781602001602082028036833780820191505090505b50905060008060005b6003805490508110156110b857600080600060038481548110610ef057610eef612f43565b5b9060005260206000200160009054906101000a900473ffffffffffffffffffffffffffffffffffffffff1673ffffffffffffffffffffffffffffffffffffffff1673ffffffffffffffffffffffffffffffffffffffff16815260200190815260200160002060010154905060008113156110015760038281548110610f7857610f77612f43565b5b9060005260206000200160009054906101000a900473ffffffffffffffffffffffffffffffffffffffff16868580610faf90612f72565b965081518110610fc257610fc1612f43565b5b602002602001019073ffffffffffffffffffffffffffffffffffffffff16908173ffffffffffffffffffffffffffffffffffffffff16815250506110a4565b60008112156110a3576003828154811061101e5761101d612f43565b5b9060005260206000200160009054906101000a900473ffffffffffffffffffffffffffffffffffffffff1685848061105590612f72565b95508151811061106857611067612f43565b5b602002602001019073ffffffffffffffffffffffffffffffffffffffff16908173ffffffffffffffffffffffffffffffffffffffff16815250505b5b5080806110b090612f72565b915050610eca565b506110c284611f52565b6110cb8361213d565b60008060005b8651821080156110e15750855181105b156114455760008783815181106110fb576110fa612f43565b5b60200260200101519050600087838151811061111a57611119612f43565b5b6020026020010151905060008060008473ffffffffffffffffffffffffffffffffffffffff1673ffffffffffffffffffffffffffffffffffffffff16815260200190815260200160002060010154905060008060008473ffffffffffffffffffffffffffffffffffffffff1673ffffffffffffffffffffffffffffffffffffffff168152602001908152602001600020600101546111b790612940565b9050600082036111d85785806111cc90612f72565b965050505050506110d1565b600081036111f75784806111eb90612f72565b955050505050506110d1565b60008183106112065781611208565b825b905060006001548261121a9190612aac565b9050806000808773ffffffffffffffffffffffffffffffffffffffff1673ffffffffffffffffffffffffffffffffffffffff168152602001908152602001600020600201600082825461126d9190612b80565b92505081905550806000808873ffffffffffffffffffffffffffffffffffffffff1673ffffffffffffffffffffffffffffffffffffffff16815260200190815260200160002060020160008282546112c59190612bb4565b92505081905550816000808873ffffffffffffffffffffffffffffffffffffffff1673ffffffffffffffffffffffffffffffffffffffff168152602001908152602001600020600101600082825461131d9190612c2c565b92505081905550816000808773ffffffffffffffffffffffffffffffffffffffff1673ffffffffffffffffffffffffffffffffffffffff16815260200190815260200160002060010160008282546113759190612be8565b9250508190555081896113889190612bb4565b985060008060008873ffffffffffffffffffffffffffffffffffffffff1673ffffffffffffffffffffffffffffffffffffffff16815260200190815260200160002060010154036113e25787806113de90612f72565b9850505b60008060008773ffffffffffffffffffffffffffffffffffffffff1673ffffffffffffffffffffffffffffffffffffffff168152602001908152602001600020600101540361143a57868061143690612f72565b9750505b5050505050506110d1565b61144d610b5e565b7f39b4ddfd83bc9792a2233171d2d72f2231f35220251dee4342d6f07c3cea0e6f8360405161147c919061250d565b60405180910390a15050505050505050505b565b6000803373ffffffffffffffffffffffffffffffffffffffff1673ffffffffffffffffffffffffffffffffffffffff16815260200190815260200160002060030160009054906101000a900460ff1661151e576040517f08c379a0000000000000000000000000000000000000000000000000000000008152600401611515906126a9565b60405180910390fd5b6000808373ffffffffffffffffffffffffffffffffffffffff1673ffffffffffffffffffffffffffffffffffffffff16815260200190815260200160002060030160009054906101000a900460ff166115ac576040517f08c379a00000000000000000000000000000000000000000000000000000000081526004016115a390612617565b60405180910390fd5b8173ffffffffffffffffffffffffffffffffffffffff163373ffffffffffffffffffffffffffffffffffffffff160361161a576040517f08c379a00000000000000000000000000000000000000000000000000000000081526004016116119061273b565b60405180910390fd5b6000811161165d576040517f08c379a0000000000000000000000000000000000000000000000000000000008152600401611654906130bb565b60405180910390fd5b60008060003373ffffffffffffffffffffffffffffffffffffffff1673ffffffffffffffffffffffffffffffffffffffff16815260200190815260200160002060010154136116e1576040517f08c379a00000000000000000000000000000000000000000000000000000000081526004016116d8906128f1565b60405180910390fd5b60008060008473ffffffffffffffffffffffffffffffffffffffff1673ffffffffffffffffffffffffffffffffffffffff1681526020019081526020016000206001015412611765576040517f08c379a000000000000000000000000000000000000000000000000000000000815260040161175c9061285f565b60405180910390fd5b60008060003373ffffffffffffffffffffffffffffffffffffffff1673ffffffffffffffffffffffffffffffffffffffff16815260200190815260200160002060010154905060008060008573ffffffffffffffffffffffffffffffffffffffff1673ffffffffffffffffffffffffffffffffffffffff168152602001908152602001600020600101546117f890612940565b90508183111561183d576040517f08c379a00000000000000000000000000000000000000000000000000000000081526004016118349061314d565b60405180910390fd5b80831115611880576040517f08c379a0000000000000000000000000000000000000000000000000000000008152600401611877906131df565b60405180910390fd5b6000600154846118909190612aac565b9050806000808773ffffffffffffffffffffffffffffffffffffffff1673ffffffffffffffffffffffffffffffffffffffff168152602001908152602001600020600201541015611916576040517f08c379a000000000000000000000000000000000000000000000000000000000815260040161190d90613271565b60405180910390fd5b806000808773ffffffffffffffffffffffffffffffffffffffff1673ffffffffffffffffffffffffffffffffffffffff16815260200190815260200160002060020160008282546119679190612b80565b92505081905550806000803373ffffffffffffffffffffffffffffffffffffffff1673ffffffffffffffffffffffffffffffffffffffff16815260200190815260200160002060020160008282546119bf9190612bb4565b92505081905550836000803373ffffffffffffffffffffffffffffffffffffffff1673ffffffffffffffffffffffffffffffffffffffff1681526020019081526020016000206001016000828254611a179190612c2c565b92505081905550836000808773ffffffffffffffffffffffffffffffffffffffff1673ffffffffffffffffffffffffffffffffffffffff1681526020019081526020016000206001016000828254611a6f9190612be8565b92505081905550611a7e610b5e565b5050505050565b6000803373ffffffffffffffffffffffffffffffffffffffff1673ffffffffffffffffffffffffffffffffffffffff16815260200190815260200160002060030160009054906101000a900460ff1615611b14576040517f08c379a0000000000000000000000000000000000000000000000000000000008152600401611b0b90613303565b60405180910390fd5b60405180608001604052803373ffffffffffffffffffffffffffffffffffffffff1681526020016000815260200160008152602001600115158152506000803373ffffffffffffffffffffffffffffffffffffffff1673ffffffffffffffffffffffffffffffffffffffff16815260200190815260200160002060008201518160000160006101000a81548173ffffffffffffffffffffffffffffffffffffffff021916908373ffffffffffffffffffffffffffffffffffffffff160217905550602082015181600101556040820151816002015560608201518160030160006101000a81548160ff0219169083151502179055509050506003339080600181540180825580915050600190039060005260206000200160009091909190916101000a81548173ffffffffffffffffffffffffffffffffffffffff021916908373ffffffffffffffffffffffffffffffffffffffff160217905550565b6000600260009054906101000a900473ffffffffffffffffffffffffffffffffffffffff16905090565b6000600154905090565b600260009054906101000a900473ffffffffffffffffffffffffffffffffffffffff1673ffffffffffffffffffffffffffffffffffffffff163373ffffffffffffffffffffffffffffffffffffffff1614611d35576040517f08c379a0000000000000000000000000000000000000000000000000000000008152600401611d2c90613395565b60405180910390fd5b6000808373ffffffffffffffffffffffffffffffffffffffff1673ffffffffffffffffffffffffffffffffffffffff16815260200190815260200160002060030160009054906101000a900460ff16611dc3576040517f08c379a0000000000000000000000000000000000000000000000000000000008152600401611dba90613427565b60405180910390fd5b806000808473ffffffffffffffffffffffffffffffffffffffff1673ffffffffffffffffffffffffffffffffffffffff1681526020019081526020016000206001016000828254611e149190612be8565b92505081905550611e23610b5e565b5050565b6000803373ffffffffffffffffffffffffffffffffffffffff1673ffffffffffffffffffffffffffffffffffffffff16815260200190815260200160002060030160009054906101000a900460ff16611eb5576040517f08c379a0000000000000000000000000000000000000000000000000000000008152600401611eac906134b9565b60405180910390fd5b60003411611ef8576040517f08c379a0000000000000000000000000000000000000000000000000000000008152600401611eef9061354b565b60405180910390fd5b346000803373ffffffffffffffffffffffffffffffffffffffff1673ffffffffffffffffffffffffffffffffffffffff1681526020019081526020016000206002016000828254611f499190612bb4565b92505081905550565b6000815190506000600190505b81811015612138576000838281518110611f7c57611f7b612f43565b5b6020026020010151905060008060008373ffffffffffffffffffffffffffffffffffffffff1673ffffffffffffffffffffffffffffffffffffffff16815260200190815260200160002060010154905060008390505b60008111801561204857508160008088600185611fef9190612b80565b8151811061200057611fff612f43565b5b602002602001015173ffffffffffffffffffffffffffffffffffffffff1673ffffffffffffffffffffffffffffffffffffffff16815260200190815260200160002060010154125b156120d4578560018261205b9190612b80565b8151811061206c5761206b612f43565b5b602002602001015186828151811061208757612086612f43565b5b602002602001019073ffffffffffffffffffffffffffffffffffffffff16908173ffffffffffffffffffffffffffffffffffffffff168152505080806120cc9061356b565b915050611fd2565b828682815181106120e8576120e7612f43565b5b602002602001019073ffffffffffffffffffffffffffffffffffffffff16908173ffffffffffffffffffffffffffffffffffffffff1681525050505050808061213090612f72565b915050611f5f565b505050565b6000815190506000600190505b8181101561232357600083828151811061216757612166612f43565b5b6020026020010151905060008060008373ffffffffffffffffffffffffffffffffffffffff1673ffffffffffffffffffffffffffffffffffffffff16815260200190815260200160002060010154905060008390505b600081118015612233575081600080886001856121da9190612b80565b815181106121eb576121ea612f43565b5b602002602001015173ffffffffffffffffffffffffffffffffffffffff1673ffffffffffffffffffffffffffffffffffffffff16815260200190815260200160002060010154135b156122bf57856001826122469190612b80565b8151811061225757612256612f43565b5b602002602001015186828151811061227257612271612f43565b5b602002602001019073ffffffffffffffffffffffffffffffffffffffff16908173ffffffffffffffffffffffffffffffffffffffff168152505080806122b79061356b565b9150506121bd565b828682815181106122d3576122d2612f43565b5b602002602001019073ffffffffffffffffffffffffffffffffffffffff16908173ffffffffffffffffffffffffffffffffffffffff1681525050505050808061231b90612f72565b91505061214a565b505050565b600080fd5b600073ffffffffffffffffffffffffffffffffffffffff82169050919050565b60006123588261232d565b9050919050565b6123688161234d565b811461237357600080fd5b50565b6000813590506123858161235f565b92915050565b6000819050919050565b61239e8161238b565b81146123a957600080fd5b50565b6000813590506123bb81612395565b92915050565b600080604083850312156123d8576123d7612328565b5b60006123e685828601612376565b92505060206123f7858286016123ac565b9150509250929050565b60006020828403121561241757612416612328565b5b600061242584828501612376565b91505092915050565b6124378161234d565b82525050565b6000819050919050565b6124508161243d565b82525050565b61245f8161238b565b82525050565b60008115159050919050565b61247a81612465565b82525050565b6000608082019050612495600083018761242e565b6124a26020830186612447565b6124af6040830185612456565b6124bc6060830184612471565b95945050505050565b6000602082840312156124db576124da612328565b5b60006124e9848285016123ac565b91505092915050565b6000602082019050612507600083018461242e565b92915050565b60006020820190506125226000830184612456565b92915050565b6125318161243d565b811461253c57600080fd5b50565b60008135905061254e81612528565b92915050565b6000806040838503121561256b5761256a612328565b5b600061257985828601612376565b925050602061258a8582860161253f565b9150509250929050565b600082825260208201905092915050565b7f4275796572206973206e6f74206120726567697374657265642070726f73756d60008201527f6572000000000000000000000000000000000000000000000000000000000000602082015250565b6000612601602283612594565b915061260c826125a5565b604082019050919050565b60006020820190508181036000830152612630816125f4565b9050919050565b7f53656c6c6572206973206e6f74206120726567697374657265642070726f737560008201527f6d65720000000000000000000000000000000000000000000000000000000000602082015250565b6000612693602383612594565b915061269e82612637565b604082019050919050565b600060208201905081810360008301526126c281612686565b9050919050565b7f412070726f73756d65722063616e6e6f7420747261646520776974682069747360008201527f656c660000000000000000000000000000000000000000000000000000000000602082015250565b6000612725602383612594565b9150612730826126c9565b604082019050919050565b6000602082019050818103600083015261275481612718565b9050919050565b7f52657175657374656420656e65726779206d757374206265206120706f73697460008201527f6976652076616c75650000000000000000000000000000000000000000000000602082015250565b60006127b7602983612594565b91506127c28261275b565b604082019050919050565b600060208201905081810360008301526127e6816127aa565b9050919050565b7f427579657220646f6573206e6f74206861766520616e20656e6572677920646560008201527f6669636974000000000000000000000000000000000000000000000000000000602082015250565b6000612849602583612594565b9150612854826127ed565b604082019050919050565b600060208201905081810360008301526128788161283c565b9050919050565b7f53656c6c657220646f6573206e6f74206861766520616e20656e65726779207360008201527f7572706c75730000000000000000000000000000000000000000000000000000602082015250565b60006128db602683612594565b91506128e68261287f565b604082019050919050565b6000602082019050818103600083015261290a816128ce565b9050919050565b7f4e487b7100000000000000000000000000000000000000000000000000000000600052601160045260246000fd5b600061294b8261243d565b91507f8000000000000000000000000000000000000000000000000000000000000000820361297d5761297c612911565b5b816000039050919050565b7f43616e6e6f7420627579206d6f726520656e65726779207468616e207468652060008201527f7265636f72646564206465666963697400000000000000000000000000000000602082015250565b60006129e4603083612594565b91506129ef82612988565b604082019050919050565b60006020820190508181036000830152612a13816129d7565b9050919050565b7f53656c6c657220646f6573206e6f7420686176652073756666696369656e742060008201527f737572706c757300000000000000000000000000000000000000000000000000602082015250565b6000612a76602783612594565b9150612a8182612a1a565b604082019050919050565b60006020820190508181036000830152612aa581612a69565b9050919050565b6000612ab78261238b565b9150612ac28361238b565b9250828202612ad08161238b565b91508282048414831517612ae757612ae6612911565b5b5092915050565b7f496e73756666696369656e742045746865722062616c616e636520746f20636f60008201527f6d706c6574652070757263686173650000000000000000000000000000000000602082015250565b6000612b4a602f83612594565b9150612b5582612aee565b604082019050919050565b60006020820190508181036000830152612b7981612b3d565b9050919050565b6000612b8b8261238b565b9150612b968361238b565b9250828203905081811115612bae57612bad612911565b5b92915050565b6000612bbf8261238b565b9150612bca8361238b565b9250828201905080821115612be257612be1612911565b5b92915050565b6000612bf38261243d565b9150612bfe8361243d565b925082820190508281121560008312168382126000841215161715612c2657612c25612911565b5b92915050565b6000612c378261243d565b9150612c428361243d565b9250828203905081811260008412168282136000851215161715612c6957612c68612911565b5b92915050565b7f4f6e6c7920726567697374657265642070726f73756d6572732063616e20776960008201527f7468647261770000000000000000000000000000000000000000000000000000602082015250565b6000612ccb602683612594565b9150612cd682612c6f565b604082019050919050565b60006020820190508181036000830152612cfa81612cbe565b9050919050565b7f43616e6e6f74207769746864726177207768696c6520686f6c64696e6720616e60008201527f20656e6572677920646566696369740000000000000000000000000000000000602082015250565b6000612d5d602f83612594565b9150612d6882612d01565b604082019050919050565b60006020820190508181036000830152612d8c81612d50565b9050919050565b7f496e73756666696369656e7420636f6e74726163742062616c616e6365000000600082015250565b6000612dc9601d83612594565b9150612dd482612d93565b602082019050919050565b60006020820190508181036000830152612df881612dbc565b9050919050565b7f5769746864726177616c20616d6f756e74206d7573742062652067726561746560008201527f72207468616e207a65726f000000000000000000000000000000000000000000602082015250565b6000612e5b602b83612594565b9150612e6682612dff565b604082019050919050565b60006020820190508181036000830152612e8a81612e4e565b9050919050565b600081905092915050565b50565b6000612eac600083612e91565b9150612eb782612e9c565b600082019050919050565b6000612ecd82612e9f565b9150819050919050565b7f4574686572207472616e73666572206661696c65640000000000000000000000600082015250565b6000612f0d601583612594565b9150612f1882612ed7565b602082019050919050565b60006020820190508181036000830152612f3c81612f00565b9050919050565b7f4e487b7100000000000000000000000000000000000000000000000000000000600052603260045260246000fd5b6000612f7d8261238b565b91507fffffffffffffffffffffffffffffffffffffffffffffffffffffffffffffffff8203612faf57612fae612911565b5b600182019050919050565b6000819050919050565b6000819050919050565b6000612fe9612fe4612fdf84612fba565b612fc4565b61238b565b9050919050565b612ff981612fce565b82525050565b60006020820190506130146000830184612ff0565b92915050565b7f4e487b7100000000000000000000000000000000000000000000000000000000600052604160045260246000fd5b7f4f66666572656420656e65726779206d757374206265206120706f736974697660008201527f652076616c756500000000000000000000000000000000000000000000000000602082015250565b60006130a5602783612594565b91506130b082613049565b604082019050919050565b600060208201905081810360008301526130d481613098565b9050919050565b7f43616e6e6f742073656c6c206d6f726520656e65726779207468616e2074686560008201527f207265636f7264656420737572706c7573000000000000000000000000000000602082015250565b6000613137603183612594565b9150613142826130db565b604082019050919050565b600060208201905081810360008301526131668161312a565b9050919050565b7f427579657220646f6573206e6f7420726571756972652074686174206d75636860008201527f20656e6572677900000000000000000000000000000000000000000000000000602082015250565b60006131c9602783612594565b91506131d48261316d565b604082019050919050565b600060208201905081810360008301526131f8816131bc565b9050919050565b7f42757965722068617320696e73756666696369656e742045746865722062616c60008201527f616e636500000000000000000000000000000000000000000000000000000000602082015250565b600061325b602483612594565b9150613266826131ff565b604082019050919050565b6000602082019050818103600083015261328a8161324e565b9050919050565b7f4164647265737320697320616c7265616479207265676973746572656420617360008201527f20612070726f73756d6572000000000000000000000000000000000000000000602082015250565b60006132ed602b83612594565b91506132f882613291565b604082019050919050565b6000602082019050818103600083015261331c816132e0565b9050919050565b7f4f6e6c7920746865207265636f726465722063616e2075706461746520656e6560008201527f7267792073746174757300000000000000000000000000000000000000000000602082015250565b600061337f602a83612594565b915061338a82613323565b604082019050919050565b600060208201905081810360008301526133ae81613372565b9050919050565b7f5461726765742061646472657373206973206e6f74206120726567697374657260008201527f65642070726f73756d6572000000000000000000000000000000000000000000602082015250565b6000613411602b83612594565b915061341c826133b5565b604082019050919050565b6000602082019050818103600083015261344081613404565b9050919050565b7f4f6e6c7920726567697374657265642070726f73756d6572732063616e20646560008201527f706f736974000000000000000000000000000000000000000000000000000000602082015250565b60006134a3602583612594565b91506134ae82613447565b604082019050919050565b600060208201905081810360008301526134d281613496565b9050919050565b7f4465706f73697420616d6f756e74206d7573742062652067726561746572207460008201527f68616e207a65726f000000000000000000000000000000000000000000000000602082015250565b6000613535602883612594565b9150613540826134d9565b604082019050919050565b6000602082019050818103600083015261356481613528565b9050919050565b60006135768261238b565b91506000820361358957613588612911565b5b60018203905091905056fea2646970667358221220a3b5d94d42104fb7256443d5959725dc0be71c56d9fa2330001dce135a396a8b64736f6c63430008130033",
  "linkReferences": {},
  "deployedLinkReferences": {}
}